{
  "contractName": "Counter",
  "abi": [
    {
      "constant": true,
      "inputs": [],
      "name": "count",
      "outputs": [
        {
          "internalType": "uint256",
          "name": "",
          "type": "uint256"
        }
      ],
      "payable": false,
      "stateMutability": "view",
      "type": "function"
    },
    {
      "constant": true,
      "inputs": [],
      "name": "get",
      "outputs": [
        {
          "internalType": "uint256",
          "name": "",
          "type": "uint256"
        }
      ],
      "payable": false,
      "stateMutability": "view",
      "type": "function"
    },
    {
      "constant": false,
      "inputs": [],
      "name": "inc",
      "outputs": [],
      "payable": false,
      "stateMutability": "nonpayable",
      "type": "function"
    },
    {
      "constant": false,
      "inputs": [],
      "name": "dec",
      "outputs": [],
      "payable": false,
      "stateMutability": "nonpayable",
      "type": "function"
    }
  ],
  "bytecode": "0x608060405234801561001057600080fd5b5060fb8061001f6000396000f3fe6080604052348015600f57600080fd5b506004361060465760003560e01c806306661abd14604b578063371303c01460675780636d4ce63c14606f578063b3bcfa8214608b575b600080fd5b60516093565b6040518082815260200191505060405180910390f35b606d6099565b005b607560ab565b6040518082815260200191505060405180910390f35b609160b4565b005b60005481565b60016000808282540192505081905550565b60008054905090565b6001600080828254039250508190555056fea265627a7a72315820fdcd44414f9dd75dad44c981a701cf5b0b8e2d99afdf09d202ff09b0d46db23864736f6c63430005100032",
  "source": "// SPDX-License-Identifier: MIT\npragma solidity >=0.4.22 <0.9.0;\n/*\ncontract IntegerAndUnsignedInteger {\n    int256 public a = -45;\n    uint8 public b = 150;\n\n    //v stepen vozvedenie\n    function degree_u(uint256 x) public view returns(uint256) {\n        return b ** x;\n    }\n\n    // izmenenie znacheniy peremennyh cherez settery\n    function setA(uint256 _a) public {\n        a = _a;\n    }\n\n    function setA(uint256 _b) public {\n        b = _b;\n    }\n}*/\n\ncontract Counter {\n    uint public count;\n\n    function get() public view returns (uint) {\n        return count;\n    }\n\n    function inc() public {\n        count += 1;\n    }\n\n    function dec() public {\n        count -= 1;\n    }\n}\n",
  "sourcePath": "/Users/ruslan/token/reactBox/contracts/TypeIntegerAndUnsignedInteger.sol",
  "compiler": {
    "name": "solc",
    "version": "0.5.16+commit.9c3226ce.Emscripten.clang"
  },
  "schemaVersion": "3.4.3",
  "updatedAt": "2021-11-01T15:03:54.065Z",
  "devdoc": {
    "methods": {}
  },
  "userdoc": {
    "methods": {}
  }
}