{
  "contractName": "KeyWords",
  "abi": [
    {
      "constant": true,
      "inputs": [],
      "name": "oneDay",
      "outputs": [
        {
          "internalType": "uint256",
          "name": "",
          "type": "uint256"
        }
      ],
      "payable": false,
      "stateMutability": "view",
      "type": "function"
    },
    {
      "constant": true,
      "inputs": [],
      "name": "oneEther",
      "outputs": [
        {
          "internalType": "uint256",
          "name": "",
          "type": "uint256"
        }
      ],
      "payable": false,
      "stateMutability": "view",
      "type": "function"
    },
    {
      "constant": true,
      "inputs": [],
      "name": "oneHours",
      "outputs": [
        {
          "internalType": "uint256",
          "name": "",
          "type": "uint256"
        }
      ],
      "payable": false,
      "stateMutability": "view",
      "type": "function"
    },
    {
      "constant": true,
      "inputs": [],
      "name": "oneMinute",
      "outputs": [
        {
          "internalType": "uint256",
          "name": "",
          "type": "uint256"
        }
      ],
      "payable": false,
      "stateMutability": "view",
      "type": "function"
    },
    {
      "constant": true,
      "inputs": [],
      "name": "oneSecond",
      "outputs": [
        {
          "internalType": "uint256",
          "name": "",
          "type": "uint256"
        }
      ],
      "payable": false,
      "stateMutability": "view",
      "type": "function"
    },
    {
      "constant": true,
      "inputs": [],
      "name": "oneWeek",
      "outputs": [
        {
          "internalType": "uint256",
          "name": "",
          "type": "uint256"
        }
      ],
      "payable": false,
      "stateMutability": "view",
      "type": "function"
    },
    {
      "constant": true,
      "inputs": [],
      "name": "oneWei",
      "outputs": [
        {
          "internalType": "uint256",
          "name": "",
          "type": "uint256"
        }
      ],
      "payable": false,
      "stateMutability": "view",
      "type": "function"
    },
    {
      "constant": false,
      "inputs": [
        {
          "internalType": "uint256",
          "name": "x",
          "type": "uint256"
        }
      ],
      "name": "set",
      "outputs": [],
      "payable": false,
      "stateMutability": "nonpayable",
      "type": "function"
    },
    {
      "constant": true,
      "inputs": [],
      "name": "get",
      "outputs": [
        {
          "internalType": "uint256",
          "name": "",
          "type": "uint256"
        }
      ],
      "payable": false,
      "stateMutability": "view",
      "type": "function"
    }
  ],
  "bytecode": "0x608060405260018055670de0b6b3a76400006002556001600355603c600455610e106005556201518060065562093a8060075534801561003e57600080fd5b506102288061004e6000396000f3fe608060405234801561001057600080fd5b50600436106100935760003560e01c80634bd9351b116100665780634bd9351b146101105780634fb2e0be1461012e57806360fe47b11461014c5780636d4ce63c1461017a578063d297a89f1461019857610093565b806321ed4b2714610098578063374c14ee146100b6578063469df505146100d457806346c67843146100f2575b600080fd5b6100a06101b6565b6040518082815260200191505060405180910390f35b6100be6101bc565b6040518082815260200191505060405180910390f35b6100dc6101c2565b6040518082815260200191505060405180910390f35b6100fa6101c8565b6040518082815260200191505060405180910390f35b6101186101ce565b6040518082815260200191505060405180910390f35b6101366101d4565b6040518082815260200191505060405180910390f35b6101786004803603602081101561016257600080fd5b81019080803590602001909291905050506101da565b005b6101826101e4565b6040518082815260200191505060405180910390f35b6101a06101ed565b6040518082815260200191505060405180910390f35b60035481565b60055481565b60045481565b60075481565b60065481565b60015481565b8060008190555050565b60008054905090565b6002548156fea265627a7a72315820eb651b78a62f298fab83bce8593343c7d21dd048d503858cf64b117b5e807b8264736f6c63430005100032",
  "source": "// SPDX-License-Identifier: MIT\npragma solidity >=0.4.22 <0.9.0;\n\ncontract KeyWords {\n\n    uint storedData;\n\n    uint public oneWei = 1 wei; // 1\n    //uint public oneSzabo = 1 szabo; // 10^12\n    //uint public oneFinney = 1 finney; // 10^15\n    uint public oneEther = 1 ether; // 10^18\n\n    uint public oneSecond = 1 seconds; // 1\n    uint public oneMinute = 1 minutes; \n    uint public oneHours = 1 hours;\n    uint public oneDay = 1 days;\n    uint public oneWeek = 1 weeks;\n    //uint public oneMounts = 1 mounts;\n    //uint public oneYear = 1 years;\n\n    /* assert(1 wei == 1);\n    assert(1 szabo == 1e12);\n    assert(1 finney == 1e15);\n    assert(1 ether == 1e18); */\n\n    function set(uint x) public {\n        storedData = x;\n    }\n\n    function get() public view returns (uint) {\n        return storedData;\n    }\n    \n}\n",
  "sourcePath": "/Users/ruslan/token/reactBox/contracts/KeyWords.sol",
  "compiler": {
    "name": "solc",
    "version": "0.5.16+commit.9c3226ce.Emscripten.clang"
  },
  "schemaVersion": "3.4.3",
  "updatedAt": "2021-11-01T15:13:28.646Z",
  "devdoc": {
    "methods": {}
  },
  "userdoc": {
    "methods": {}
  }
}