{
  "contractName": "Mapping",
  "abi": [
    {
      "constant": true,
      "inputs": [
        {
          "internalType": "address",
          "name": "",
          "type": "address"
        }
      ],
      "name": "myMap",
      "outputs": [
        {
          "internalType": "uint256",
          "name": "",
          "type": "uint256"
        }
      ],
      "payable": false,
      "stateMutability": "view",
      "type": "function"
    },
    {
      "constant": true,
      "inputs": [
        {
          "internalType": "address",
          "name": "_addr",
          "type": "address"
        }
      ],
      "name": "get",
      "outputs": [
        {
          "internalType": "uint256",
          "name": "",
          "type": "uint256"
        }
      ],
      "payable": false,
      "stateMutability": "view",
      "type": "function"
    },
    {
      "constant": false,
      "inputs": [
        {
          "internalType": "address",
          "name": "_addr",
          "type": "address"
        },
        {
          "internalType": "uint256",
          "name": "_i",
          "type": "uint256"
        }
      ],
      "name": "set",
      "outputs": [],
      "payable": false,
      "stateMutability": "nonpayable",
      "type": "function"
    },
    {
      "constant": false,
      "inputs": [
        {
          "internalType": "address",
          "name": "_addr",
          "type": "address"
        }
      ],
      "name": "remove",
      "outputs": [],
      "payable": false,
      "stateMutability": "nonpayable",
      "type": "function"
    }
  ],
  "bytecode": "0x608060405234801561001057600080fd5b506102b4806100206000396000f3fe608060405234801561001057600080fd5b506004361061004c5760003560e01c806327cbd5291461005157806329092d0e146100a95780633825d828146100ed578063c2bc2efc1461013b575b600080fd5b6100936004803603602081101561006757600080fd5b81019080803573ffffffffffffffffffffffffffffffffffffffff169060200190929190505050610193565b6040518082815260200191505060405180910390f35b6100eb600480360360208110156100bf57600080fd5b81019080803573ffffffffffffffffffffffffffffffffffffffff1690602001909291905050506101ab565b005b6101396004803603604081101561010357600080fd5b81019080803573ffffffffffffffffffffffffffffffffffffffff169060200190929190803590602001909291905050506101f0565b005b61017d6004803603602081101561015157600080fd5b81019080803573ffffffffffffffffffffffffffffffffffffffff169060200190929190505050610237565b6040518082815260200191505060405180910390f35b60006020528060005260406000206000915090505481565b6000808273ffffffffffffffffffffffffffffffffffffffff1673ffffffffffffffffffffffffffffffffffffffff1681526020019081526020016000206000905550565b806000808473ffffffffffffffffffffffffffffffffffffffff1673ffffffffffffffffffffffffffffffffffffffff168152602001908152602001600020819055505050565b60008060008373ffffffffffffffffffffffffffffffffffffffff1673ffffffffffffffffffffffffffffffffffffffff16815260200190815260200160002054905091905056fea265627a7a72315820fa7492e86c84a5c9031eb94a38e7b4f4791e67f250367a2398b1fc3f23af52d464736f6c63430005100032",
  "source": "// SPDX-License-Identifier: MIT\npragma solidity >=0.4.22 <0.9.0;\n\n//Maps создаются с использованием синтаксиса mapping(keyType => valueType).\n//keyType могут быть такими типами значений, как uint, addressили bytes.\n//valueType может быть любого типа, включая другое отображение или массив.\n//Mappings не повторяются. ( are not iterable.)\n\ncontract Mapping {\n    // Mapping from address to uint\n    mapping(address => uint) public myMap;\n\n    function get(address _addr) public view returns (uint) {\n        // Mapping always returns a value.\n        // If the value was never set, it will return the default value.\n        return myMap[_addr];\n    }\n\n    function set(address _addr, uint _i) public {\n        // Update the value at this address\n        myMap[_addr] = _i;\n    }\n\n    function remove(address _addr) public {\n        // Reset the value to the default value.\n        delete myMap[_addr];\n    }\n}\n\ncontract NestedMapping {\n    // Nested mapping (mapping from address to another mapping)\n    mapping(address => mapping(uint => bool)) public nested;\n\n    function get(address _addr1, uint _i) public view returns (bool) {\n        // You can get values from a nested mapping\n        // even when it is not initialized\n        return nested[_addr1][_i];\n    }\n\n    function set(\n        address _addr1,\n        uint _i,\n        bool _boo\n    ) public {\n        nested[_addr1][_i] = _boo;\n    }\n\n    function remove(address _addr1, uint _i) public {\n        delete nested[_addr1][_i];\n    }\n}\n\n",
  "sourcePath": "/Users/ruslan/token/reactBox/contracts/TypeMapping.sol",
  "compiler": {
    "name": "solc",
    "version": "0.5.16+commit.9c3226ce.Emscripten.clang"
  },
  "schemaVersion": "3.4.3",
  "updatedAt": "2021-11-01T15:03:54.066Z",
  "devdoc": {
    "methods": {}
  },
  "userdoc": {
    "methods": {}
  }
}