{
  "contractName": "TypeStruct",
  "abi": [
    {
      "constant": true,
      "inputs": [
        {
          "internalType": "uint256",
          "name": "",
          "type": "uint256"
        }
      ],
      "name": "persons",
      "outputs": [
        {
          "internalType": "string",
          "name": "name",
          "type": "string"
        },
        {
          "internalType": "string",
          "name": "job",
          "type": "string"
        },
        {
          "internalType": "uint256",
          "name": "age",
          "type": "uint256"
        }
      ],
      "payable": false,
      "stateMutability": "view",
      "type": "function"
    },
    {
      "constant": false,
      "inputs": [
        {
          "internalType": "string",
          "name": "_name",
          "type": "string"
        },
        {
          "internalType": "string",
          "name": "_job",
          "type": "string"
        },
        {
          "internalType": "uint256",
          "name": "_age",
          "type": "uint256"
        }
      ],
      "name": "addPerson",
      "outputs": [],
      "payable": false,
      "stateMutability": "nonpayable",
      "type": "function"
    }
  ],
  "bytecode": "0x608060405234801561001057600080fd5b50610586806100206000396000f3fe608060405234801561001057600080fd5b50600436106100365760003560e01c80634847e01b1461003b578063a2f9eac614610197575b600080fd5b6101956004803603606081101561005157600080fd5b810190808035906020019064010000000081111561006e57600080fd5b82018360208201111561008057600080fd5b803590602001918460018302840111640100000000831117156100a257600080fd5b91908080601f016020809104026020016040519081016040528093929190818152602001838380828437600081840152601f19601f8201169050808301925050505050505091929192908035906020019064010000000081111561010557600080fd5b82018360208201111561011757600080fd5b8035906020019184600183028401116401000000008311171561013957600080fd5b91908080601f016020809104026020016040519081016040528093929190818152602001838380828437600081840152601f19601f820116905080830192505050505050509192919290803590602001909291905050506102b1565b005b6101c3600480360360208110156101ad57600080fd5b8101908080359060200190929190505050610345565b604051808060200180602001848152602001838103835286818151815260200191508051906020019080838360005b8381101561020d5780820151818401526020810190506101f2565b50505050905090810190601f16801561023a5780820380516001836020036101000a031916815260200191505b50838103825285818151815260200191508051906020019080838360005b83811015610273578082015181840152602081019050610258565b50505050905090810190601f1680156102a05780820380516001836020036101000a031916815260200191505b509550505050505060405180910390f35b60006040518060600160405280858152602001848152602001838152509080600181540180825580915050906001820390600052602060002090600302016000909192909190915060008201518160000190805190602001906103159291906104ac565b5060208201518160010190805190602001906103329291906104ac565b5060408201518160020155505050505050565b6000818154811061035257fe5b9060005260206000209060030201600091509050806000018054600181600116156101000203166002900480601f0160208091040260200160405190810160405280929190818152602001828054600181600116156101000203166002900480156103fe5780601f106103d3576101008083540402835291602001916103fe565b820191906000526020600020905b8154815290600101906020018083116103e157829003601f168201915b505050505090806001018054600181600116156101000203166002900480601f01602080910402602001604051908101604052809291908181526020018280546001816001161561010002031660029004801561049c5780601f106104715761010080835404028352916020019161049c565b820191906000526020600020905b81548152906001019060200180831161047f57829003601f168201915b5050505050908060020154905083565b828054600181600116156101000203166002900490600052602060002090601f016020900481019282601f106104ed57805160ff191683800117855561051b565b8280016001018555821561051b579182015b8281111561051a5782518255916020019190600101906104ff565b5b509050610528919061052c565b5090565b61054e91905b8082111561054a576000816000905550600101610532565b5090565b9056fea265627a7a72315820cf32c43749152ae32bd85c2141dfe896b770944d99e0ea4e751b99220e73376164736f6c63430005100032",
  "source": "//pragma solidity ^0.4.18;\n//pragma solidity >=0.5.3;\n//pragma solidity ^0.8.7;\n//pragma solidity >=0.4.22 <0.9.0;\n//pragma solidity >=0.4.0 <0.9.0;\n// SPDX-License-Identifier: MIT\n//pragma solidity ^0.8.3;\n\n// SPDX-License-Identifier: MIT\npragma solidity >=0.4.22 <0.9.0;\n\ncontract TypeStruct {\n    struct Person {\n        string name;\n        string job;\n        uint age;\n    }\n    \n    Person[] public persons;\n    \n    function addPerson(string memory _name, string memory _job, uint _age) public {\n        persons.push(Person(_name, _job, _age));\n    }\n    \n    \n}\n\n/*\ncontract Todos {\n    struct Todo {\n        string text;\n        bool completed;\n    }\n\n    // An array of 'Todo' structs\n    Todo[] public todos;\n\n    function create(string memory _text) public {\n        // 3 ways to initialize a struct\n        // - calling it like a function\n        todos.push(Todo(_text, false));\n\n        // key value mapping\n        todos.push(Todo({text: _text, completed: false}));\n\n        // initialize an empty struct and then update it\n        Todo memory todo;\n        todo.text = _text;\n        // todo.completed initialized to false\n\n        todos.push(todo);\n    }\n\n    // Solidity automatically created a getter for 'todos' so\n    // you don't actually need this function.\n    function get(uint _index) public view returns (string memory text, bool completed) {\n        Todo storage todo = todos[_index];\n        return (todo.text, todo.completed);\n    }\n\n    // update text\n    function update(uint _index, string memory _text) public {\n        Todo storage todo = todos[_index];\n        todo.text = _text;\n    }\n\n    // update completed\n    function toggleCompleted(uint _index) public {\n        Todo storage todo = todos[_index];\n        todo.completed = !todo.completed;\n    }\n}*/",
  "sourcePath": "/Users/ruslan/token/reactBox/contracts/TypeStruct.sol",
  "compiler": {
    "name": "solc",
    "version": "0.5.16+commit.9c3226ce.Emscripten.clang"
  },
  "schemaVersion": "3.4.3",
  "updatedAt": "2021-11-01T15:03:54.068Z",
  "devdoc": {
    "methods": {}
  },
  "userdoc": {
    "methods": {}
  }
}