{
  "contractName": "TypeAddres",
  "abi": [
    {
      "constant": true,
      "inputs": [],
      "name": "MY_ADDRESS",
      "outputs": [
        {
          "internalType": "address",
          "name": "",
          "type": "address"
        }
      ],
      "payable": false,
      "stateMutability": "view",
      "type": "function"
    },
    {
      "constant": true,
      "inputs": [],
      "name": "MY_UINT",
      "outputs": [
        {
          "internalType": "uint256",
          "name": "",
          "type": "uint256"
        }
      ],
      "payable": false,
      "stateMutability": "view",
      "type": "function"
    },
    {
      "constant": true,
      "inputs": [],
      "name": "add",
      "outputs": [
        {
          "internalType": "address",
          "name": "",
          "type": "address"
        }
      ],
      "payable": false,
      "stateMutability": "view",
      "type": "function"
    }
  ],
  "bytecode": "0x608060405273602b6cd4e94e69d2b6b550cf1f59c64ef75a6b1f6000806101000a81548173ffffffffffffffffffffffffffffffffffffffff021916908373ffffffffffffffffffffffffffffffffffffffff16021790555034801561006457600080fd5b5061016f806100746000396000f3fe608060405234801561001057600080fd5b50600436106100415760003560e01c80631f6649e3146100465780633a756cec146100645780634f2be91f146100ae575b600080fd5b61004e6100f8565b6040518082815260200191505060405180910390f35b61006c6100fd565b604051808273ffffffffffffffffffffffffffffffffffffffff1673ffffffffffffffffffffffffffffffffffffffff16815260200191505060405180910390f35b6100b6610115565b604051808273ffffffffffffffffffffffffffffffffffffffff1673ffffffffffffffffffffffffffffffffffffffff16815260200191505060405180910390f35b607b81565b73777788889999aaaabbbbccccddddeeeeffffcccc81565b6000809054906101000a900473ffffffffffffffffffffffffffffffffffffffff168156fea265627a7a723158205e3465ce21b00c7607944c009534dc49cf336e03157c6cf201c570c655150db364736f6c63430005100032",
  "source": "// SPDX-License-Identifier: MIT\npragma solidity >=0.4.22 <0.9.0;\n\ncontract TypeAddres {\n    address public add = 0x602B6CD4E94e69D2b6B550cF1F59c64ef75a6b1F;\n    //address payable public add = 0x602B6CD4E94e69D2b6B550cF1F59c64ef75a6b1F;\n    \n    //addr.balance;\n    //addr.transfer(uint 20);\n    //addr.send(uint 20);\n    \n    // coding convention to uppercase constant variables\n    address public constant MY_ADDRESS = 0x777788889999AaAAbBbbCcccddDdeeeEfFFfCcCc;\n    uint public constant MY_UINT = 123;\n}",
  "sourcePath": "/Users/ruslan/token/reactBox/contracts/TypeAddres.sol",
  "compiler": {
    "name": "solc",
    "version": "0.5.16+commit.9c3226ce.Emscripten.clang"
  },
  "schemaVersion": "3.4.3",
  "updatedAt": "2021-11-01T15:03:54.062Z",
  "devdoc": {
    "methods": {}
  },
  "userdoc": {
    "methods": {}
  }
}