{
  "contractName": "TypeArray",
  "abi": [
    {
      "constant": true,
      "inputs": [
        {
          "internalType": "uint256",
          "name": "",
          "type": "uint256"
        }
      ],
      "name": "arrUint",
      "outputs": [
        {
          "internalType": "uint256",
          "name": "",
          "type": "uint256"
        }
      ],
      "payable": false,
      "stateMutability": "view",
      "type": "function"
    },
    {
      "constant": false,
      "inputs": [
        {
          "internalType": "uint256",
          "name": "_elem",
          "type": "uint256"
        }
      ],
      "name": "addToArr",
      "outputs": [],
      "payable": false,
      "stateMutability": "nonpayable",
      "type": "function"
    },
    {
      "constant": true,
      "inputs": [],
      "name": "getLengthArr",
      "outputs": [
        {
          "internalType": "uint256",
          "name": "",
          "type": "uint256"
        }
      ],
      "payable": false,
      "stateMutability": "view",
      "type": "function"
    }
  ],
  "bytecode": "0x608060405234801561001057600080fd5b50610165806100206000396000f3fe608060405234801561001057600080fd5b50600436106100415760003560e01c8063baa9927b14610046578063e1819ff914610088578063faf264bb146100b6575b600080fd5b6100726004803603602081101561005c57600080fd5b81019080803590602001909291905050506100d4565b6040518082815260200191505060405180910390f35b6100b46004803603602081101561009e57600080fd5b81019080803590602001909291905050506100f5565b005b6100be610124565b6040518082815260200191505060405180910390f35b600081815481106100e157fe5b906000526020600020016000915090505481565b600081908060018154018082558091505090600182039060005260206000200160009091929091909150555050565b6000808054905090509056fea265627a7a723158202cfa35daaa64fba9b25d5c5f77717a9dd148ccf1defc1e01f5029e012d98d52e64736f6c63430005100032",
  "source": "// SPDX-License-Identifier: MIT\npragma solidity >=0.4.22 <0.9.0;\n\ncontract TypeArray {\n    uint[] public arrUint;\n    \n    function addToArr(uint _elem) public {\n        arrUint.push(_elem);\n    }\n    \n    function getLengthArr() public view returns(uint) {\n        return arrUint.length;\n    }\n}\n\n/*\n// Массив может иметь фиксированный размер \n// во время компиляции или динамический размер.\n\ncontract CompactArray {\n    uint[] public arr;\n\n    // Удаление элемента создает пробел в массиве.\n    // Один из способов сохранить компактность массива - это\n    // перемещаем последний элемент на место, которое нужно удалить.\n    function remove(uint index) public {\n        // Move the last element into the place to delete\n        arr[index] = arr[arr.length - 1];\n        // Remove the last element\n        arr.pop();\n    }\n\n    function test() public {\n        arr.push(1);\n        arr.push(2);\n        arr.push(3);\n        arr.push(4);\n        // [1, 2, 3, 4]\n\n        remove(1);\n        // [1, 4, 3]\n\n        remove(2);\n        // [1, 4]\n    }\n}\n\n\n\ncontract Array {\n    // Several ways to initialize an array\n    uint[] public arr;\n    uint[] public arr2 = [1, 2, 3];\n    // Fixed sized array, all elements initialize to 0\n    uint[10] public myFixedSizeArr;\n\n    function get(uint i) public view returns (uint) {\n        return arr[i];\n    }\n\n    // Solidity can return the entire array.\n    // But this function should be avoided for\n    // arrays that can grow indefinitely in length.\n    function getArr() public view returns (uint[] memory) {\n        return arr;\n    }\n\n    function push(uint i) public {\n        // Append to array\n        // This will increase the array length by 1.\n        arr.push(i);\n    }\n\n    function pop() public {\n        // Remove last element from array\n        // This will decrease the array length by 1\n        arr.pop();\n    }\n\n    function getLength() public view returns (uint) {\n        return arr.length;\n    }\n\n    function remove(uint index) public {\n        // Delete does not change the array length.\n        // It resets the value at index to it's default value,\n        // in this case 0\n        delete arr[index];\n    }\n}*/\n\n",
  "sourcePath": "/Users/ruslan/token/reactBox/contracts/TypeArray.sol",
  "compiler": {
    "name": "solc",
    "version": "0.5.16+commit.9c3226ce.Emscripten.clang"
  },
  "schemaVersion": "3.4.3",
  "updatedAt": "2021-11-01T15:03:54.063Z",
  "devdoc": {
    "methods": {}
  },
  "userdoc": {
    "methods": {}
  }
}